S00E00004D61737465722E73726563AA
S11300000C942A000C9447000C9447000C9447006D
S11300100C9447000C9447000C9447000C94470040
S11300200C9447000C9447000C9447000C94470030
S11300300C9447000C9447000C9447000C94470020
S11300400C9447000C9447000C9447000C94470010
S11300500C94470011241FBECFE5D8E0DEBFCDBF0E
S113006010E0A0E6B0E0E0E3F7E002C005900D92F6
S1130070AA38B107D9F720E0AAE8B0E001C01D9280
S1130080AE38B207E1F70E943C020C9496030C943C
S113009000004423B9F1413009F06BC0813089F08C
S11300A028F08230C9F0833011F108952AB381E039
S11300B090E002C0880F991F6A95E2F7822B8ABBF1
S11300C0089527B381E090E002C0880F991F6A95D4
S11300D0E2F7822B87BB089524B381E090E002C04D
S11300E0880F991F6A95E2F7822B84BB089521B388
S11300F081E090E002C0880F991F6A95E2F7822B95
S113010081BB0895813091F028F08230D9F083309A
S113011029F108952AB381E090E002C0880F991F65
S11301206A95E2F7809582238ABB089527B381E01C
S113013090E002C0880F991F6A95E2F780958223A8
S113014087BB089524B381E090E002C0880F991F13
S11301506A95E2F78095822384BB089521B381E0F8
S113016090E002C0880F991F6A95E2F78095822378
S113017081BB08954423B9F1413009F06BC081304B
S113018089F028F08230C9F0833011F108952BB33F
S113019081E090E002C0880F991F6A95E2F7822BF4
S11301A08BBB089528B381E090E002C0880F991FAB
S11301B06A95E2F7822B88BB089525B381E090E02D
S11301C002C0880F991F6A95E2F7822B85BB0895B8
S11301D022B381E090E002C0880F991F6A95E2F78C
S11301E0822B82BB0895813091F028F08230D9F0BF
S11301F0833029F108952BB381E090E002C0880F89
S1130200991F6A95E2F7809582238BBB089528B3E2
S113021081E090E002C0880F991F6A95E2F780950B
S1130220822388BB089525B381E090E002C0880F43
S1130230991F6A95E2F78095822385BB089522B3BE
S113024081E090E002C0880F991F6A95E2F78095DB
S1130250822382BB0895CF93C82F40E061E081E000
S11302600E94BA0040E062E081E00E94BA0040E0EF
S113027063E081E00E94BA008BB39C2F907F8F7063
S1130280892B8BBB41E063E081E00E94BA0089EFD7
S113029090E00197F1F700C0000040E063E081E0E6
S11302A00E94BA002BB330E1C39FC0011124922FE6
S11302B09F70892B8BBB41E063E081E00E94BA0010
S11302C089EF90E00197F1F700C0000040E063E09F
S11302D081E00E94BA0081EE94E00197F1F700C03A
S11302E00000CF91089541E061E081E00E9449005F
S11302F041E062E081E00E94490041E063E081E086
S11303000E94490041E064E080E00E94490041E02D
S113031065E080E00E94490041E066E080E00E94E0
S1130320490041E067E080E00E94490087EA91E6E5
S11303300197F1F700C0000083E30E942B0182E3E0
S11303400E942B0188E20E942B018CE00E942B0169
S113035081E00E942B0186E00E942B0182E00E9432
S11303602B010895CF93C82F41E061E081E00E9402
S1130370BA0040E062E081E00E94BA0040E063E03D
S113038081E00E94BA008BB39C2F907F8F70892BE1
S11303908BBB41E063E081E00E94BA0089EF90E00A
S11303A00197F1F700C0000040E063E081E00E94A3
S11303B0BA002BB330E1C39FC0011124922F9F7068
S11303C0892B8BBB41E063E081E00E94BA0089EF96
S11303D090E00197F1F700C0000040E063E081E0A5
S11303E00E94BA0081EE94E00197F1F700C000008A
S11303F0CF9108950F931F93CF93FC01808188239D
S113040059F08F01C0E00E94B201CF5FF801EC0FF8
S1130410F11D80818111F7CFCF911F910F91089524
S1130420CF93DF9300D0CDB7DEB790E8998390ECFB
S11304309A83FE01E80FF11D8181860F0E942B0132
S11304400F900F90DF91CF91089581E00E942B01CE
S1130450089586B1876086B93E9A379A369A089588
S113046097B1907F97B997B1892B87B9369A369906
S1130470FECF84B195B108950E9429020E947301B0
S11304802FEF40E782E0215040408040E1F700C078
S113049000000E94250280E690E00E94FA018FE3AA
S11304A09CE90197F1F700C0000060E070E081E092
S11304B090E00E9410028DE690E00E94FA018FE322
S11304C09CE90197F1F700C000006BE070E081E067
S11304D090E00E94100284E790E00E94FA018FE30A
S11304E09CE90197F1F700C0000060E875E280E044
S11304F090E00E944F0380E00E94300290938B00B2
S113050080938A0081E00E94300290938D00809352
S11305108C0020918A0030918B00273242E034070E
S113052020F16BE070E080E090E00E94100288E728
S113053090E00E94FA018FE39CE90197F1F700C073
S1130540000067E070E081E090E00E9410028AE71A
S113055090E00E94FA018FE39CE90197F1F700C053
S1130560000081E00E947003C6CF263D314020F593
S11305706BE070E080E090E00E9410028EE790E073
S11305800E94FA018FE39CE90197F1F700C0000093
S113059067E070E081E090E00E9410028AE790E05A
S11305A00E94FA018FE39CE90197F1F700C0000073
S11305B082E00E9470039FCF873222E0920720F1ED
S11305C06BE070E080E090E00E94100280E890E030
S11305D00E94FA018FE39CE90197F1F700C0000043
S11305E067E070E081E090E00E9410028AE790E00A
S11305F00E94FA018FE39CE90197F1F700C0000023
S113060084E00E94700377CF863D914020F56BE033
S113061070E080E090E00E94100282E890E00E9486
S1130620FA018FE39CE90197F1F700C0000067E04D
S113063070E081E090E00E9410028AE790E00E945E
S1130640FA018FE39CE90197F1F700C0000088E00C
S11306500E94700350CF6BE070E080E090E00E9455
S1130660100284E890E00E94FA018FE39CE901976C
S1130670F1F700C0000067E070E081E090E00E94C4
S1130680100286E890E00E94FA018FE39CE901974A
S1130690F1F700C0000080E10E9470032CCF28E134
S11306A02AB926E820BDDC01CB01880F991FAA1FB7
S11306B0BB1F880F991FAA1FBB1F9C01AD01220FEE
S11306C0331F441F551F220F331F441F551F60E063
S11306D074E284EF90E00E947403215029B90895D4
S11306E05D9BFECF8CB90895A1E21A2EAA1BBB1BF9
S11306F0FD010DC0AA1FBB1FEE1FFF1FA217B307EA
S1130700E407F50720F0A21BB30BE40BF50B661FFF
S1130710771F881F991F1A9469F7609570958095C3
S113072090959B01AC01BD01CF010895F894FFCFD2
S1130730202020446972656374696F6E005370658C
S113074065643D0052504D0046003235350042008C
S10D075052004C005300303030001A
S9030000FC
