:100000000C942A000C9434000C9434000C943400AA
:100010000C9434000C9434000C9434000C94340090
:100020000C9434000C9434000C9434000C94340080
:100030000C9434000C9434000C9434000C94340070
:100040000C9434000C9434000C9434000C94340060
:100050000C94340011241FBECFE5D8E0DEBFCDBF25
:100060000E9436000C94AF000C9400008CEF84BB0F
:1000700080E381BB60E875E280E090E00E94680068
:10008000C0E30F2EF8ECFF2EF02D00EB10EDDCE2BC
:100090000E94890090E08130910519F4C2BBD5BB64
:1000A000F7CF8230910519F4C2BB15BBF1CF843074
:1000B000910519F4C2BB05BBEBCF8830910519F44B
:1000C000C2BBF5BAE5CF409719F712BA15BAE0CF1F
:1000D00028E12AB926E820BDDC01CB01880F991F51
:1000E000AA1FBB1F880F991FAA1FBB1F9C01AD0130
:1000F000220F331F441F551F220F331F441F551F4C
:1001000060E074E284EF90E00E948D00215029B9F4
:1001100008955F9BFECF8CB10895A1E21A2EAA1B11
:10012000BB1BFD010DC0AA1FBB1FEE1FFF1FA217A7
:10013000B307E407F50720F0A21BB30BE40BF50BA4
:10014000661F771F881F991F1A9469F7609570952D
:10015000809590959B01AC01BD01CF010895F89465
:02016000FFCFCF
:00000001FF
